{
  "_format": "hh-sol-artifact-1",
  "contractName": "ConfidentialVoting",
  "sourceName": "contracts/ConfidentialVoting.sol",
  "abi": [
    {
      "inputs": [],
      "name": "AlreadyVoted",
      "type": "error"
    },
    {
      "inputs": [],
      "name": "FHEPermissionDenied",
      "type": "error"
    },
    {
      "inputs": [],
      "name": "InvalidProposal",
      "type": "error"
    },
    {
      "inputs": [],
      "name": "NotVoted",
      "type": "error"
    },
    {
      "inputs": [],
      "name": "VoteCountsAlreadyPublic",
      "type": "error"
    },
    {
      "anonymous": false,
      "inputs": [
        {
          "indexed": true,
          "internalType": "uint256",
          "name": "proposalId",
          "type": "uint256"
        },
        {
          "indexed": false,
          "internalType": "string",
          "name": "description",
          "type": "string"
        }
      ],
      "name": "ProposalCreated",
      "type": "event"
    },
    {
      "anonymous": false,
      "inputs": [
        {
          "indexed": true,
          "internalType": "uint256",
          "name": "proposalId",
          "type": "uint256"
        }
      ],
      "name": "VoteCountsMadePublic",
      "type": "event"
    },
    {
      "anonymous": false,
      "inputs": [
        {
          "indexed": true,
          "internalType": "uint256",
          "name": "proposalId",
          "type": "uint256"
        },
        {
          "indexed": false,
          "internalType": "address",
          "name": "voter",
          "type": "address"
        }
      ],
      "name": "Voted",
      "type": "event"
    },
    {
      "inputs": [
        {
          "internalType": "string",
          "name": "description",
          "type": "string"
        }
      ],
      "name": "createProposal",
      "outputs": [],
      "stateMutability": "nonpayable",
      "type": "function"
    },
    {
      "inputs": [
        {
          "internalType": "uint256",
          "name": "proposalId",
          "type": "uint256"
        }
      ],
      "name": "getEncryptedVoteCount",
      "outputs": [
        {
          "internalType": "euint8",
          "name": "yes",
          "type": "bytes32"
        },
        {
          "internalType": "euint8",
          "name": "no",
          "type": "bytes32"
        }
      ],
      "stateMutability": "view",
      "type": "function"
    },
    {
      "inputs": [
        {
          "internalType": "uint256",
          "name": "proposalId",
          "type": "uint256"
        }
      ],
      "name": "getMyVote",
      "outputs": [
        {
          "internalType": "euint8",
          "name": "",
          "type": "bytes32"
        }
      ],
      "stateMutability": "view",
      "type": "function"
    },
    {
      "inputs": [
        {
          "internalType": "uint256",
          "name": "proposalId",
          "type": "uint256"
        }
      ],
      "name": "getPublicVoteCounts",
      "outputs": [
        {
          "internalType": "uint8",
          "name": "yesCount",
          "type": "uint8"
        },
        {
          "internalType": "uint8",
          "name": "noCount",
          "type": "uint8"
        },
        {
          "internalType": "bool",
          "name": "isPublic",
          "type": "bool"
        }
      ],
      "stateMutability": "view",
      "type": "function"
    },
    {
      "inputs": [
        {
          "internalType": "uint256",
          "name": "proposalId",
          "type": "uint256"
        }
      ],
      "name": "hasAnyVotes",
      "outputs": [
        {
          "internalType": "bool",
          "name": "",
          "type": "bool"
        }
      ],
      "stateMutability": "view",
      "type": "function"
    },
    {
      "inputs": [
        {
          "internalType": "uint256",
          "name": "proposalId",
          "type": "uint256"
        },
        {
          "internalType": "address",
          "name": "voter",
          "type": "address"
        }
      ],
      "name": "hasUserVoted",
      "outputs": [
        {
          "internalType": "bool",
          "name": "",
          "type": "bool"
        }
      ],
      "stateMutability": "view",
      "type": "function"
    },
    {
      "inputs": [
        {
          "internalType": "uint256",
          "name": "proposalId",
          "type": "uint256"
        },
        {
          "internalType": "address",
          "name": "user",
          "type": "address"
        }
      ],
      "name": "isProposalOwner",
      "outputs": [
        {
          "internalType": "bool",
          "name": "",
          "type": "bool"
        }
      ],
      "stateMutability": "view",
      "type": "function"
    },
    {
      "inputs": [
        {
          "internalType": "uint256",
          "name": "proposalId",
          "type": "uint256"
        }
      ],
      "name": "makeVoteCountsPublic",
      "outputs": [],
      "stateMutability": "nonpayable",
      "type": "function"
    },
    {
      "inputs": [],
      "name": "proposalCount",
      "outputs": [
        {
          "internalType": "uint256",
          "name": "",
          "type": "uint256"
        }
      ],
      "stateMutability": "view",
      "type": "function"
    },
    {
      "inputs": [
        {
          "internalType": "uint256",
          "name": "",
          "type": "uint256"
        }
      ],
      "name": "proposals",
      "outputs": [
        {
          "internalType": "string",
          "name": "description",
          "type": "string"
        },
        {
          "internalType": "euint8",
          "name": "yesCount",
          "type": "bytes32"
        },
        {
          "internalType": "euint8",
          "name": "noCount",
          "type": "bytes32"
        },
        {
          "internalType": "bool",
          "name": "isPublic",
          "type": "bool"
        },
        {
          "internalType": "uint8",
          "name": "publicYesCount",
          "type": "uint8"
        },
        {
          "internalType": "uint8",
          "name": "publicNoCount",
          "type": "uint8"
        }
      ],
      "stateMutability": "view",
      "type": "function"
    },
    {
      "inputs": [
        {
          "internalType": "uint256",
          "name": "proposalId",
          "type": "uint256"
        },
        {
          "internalType": "externalEuint8",
          "name": "encryptedVote",
          "type": "bytes32"
        },
        {
          "internalType": "bytes",
          "name": "proof",
          "type": "bytes"
        }
      ],
      "name": "vote",
      "outputs": [],
      "stateMutability": "nonpayable",
      "type": "function"
    }
  ],
  "bytecode": "0x608060405234801561000f575f80fd5b5061018a6100ae604080516080810182525f808252602082018190529181018290526060810191909152506040805160808101825273687820221192c5b662b25367f70076a37bc79b6c815273848b0066793bcc60346da1f49049357399b8d5956020820152731364cbbf2cdf5032c47d8226a6f6fbd2afcdacac9181019190915273bc91f3dad1a5f19f8390c400196e58073b6a0bc4606082015290565b80517fed8d60e34876f751cc8b014c560745351147d9de11b9347c854e881b128ea60080546001600160a01b03199081166001600160a01b039384161790915560208301517fed8d60e34876f751cc8b014c560745351147d9de11b9347c854e881b128ea6018054831691841691909117905560408301517fed8d60e34876f751cc8b014c560745351147d9de11b9347c854e881b128ea6028054831691841691909117905560608301517fed8d60e34876f751cc8b014c560745351147d9de11b9347c854e881b128ea6038054909216921691909117905550565b7f5ea69329017273582817d320489fbd94f775580e90c092699ca6f3d12fdf7d0080546001600160a01b03191673a02cda4ca3a71d7c46997716f4283aa851c288121790556112c4806101dc5f395ff3fe608060405234801561000f575f80fd5b50600436106100c4575f3560e01c806369d7fc8a1161007d578063da35c66411610058578063da35c664146101c4578063dc296ae1146101d5578063f76b4049146101e8575f80fd5b806369d7fc8a146101545780637a4e381c14610167578063954bde3b1461019c575f80fd5b806349c2a1a6116100ad57806349c2a1a61461010b5780634dba84b81461011e5780635eff1bb814610141575f80fd5b8063013cf08b146100c85780630d0de175146100f6575b5f80fd5b6100db6100d6366004610eb8565b6101fb565b6040516100ed96959493929190610f12565b60405180910390f35b610109610104366004610eb8565b6102d2565b005b610109610119366004610f98565b6103cd565b61013161012c366004610eb8565b6104af565b60405190151581526020016100ed565b61010961014f366004610fd7565b6104d9565b610131610162366004611026565b6106df565b61017a610175366004610eb8565b610722565b6040805160ff94851681529390921660208401521515908201526060016100ed565b6101af6101aa366004610eb8565b61078c565b604080519283526020830191909152016100ed565b5f545b6040519081526020016100ed565b6101316101e3366004611026565b6107e5565b6101c76101f6366004610eb8565b610832565b5f8181548110610209575f80fd5b905f5260205f2090600402015f91509050805f0180546102289061105f565b80601f01602080910402602001604051908101604052809291908181526020018280546102549061105f565b801561029f5780601f106102765761010080835404028352916020019161029f565b820191905f5260205f20905b81548152906001019060200180831161028257829003601f168201915b505050600184015460028501546003909501549394909390925060ff808216925061010082048116916201000090041686565b5f5481106102f357604051631dc0650160e31b815260040160405180910390fd5b5f818152600360205260409020546001600160a01b0316331461032957604051636c71093560e01b815260040160405180910390fd5b5f80828154811061033c5761033c611097565b5f9182526020909120600490910201600381015490915060ff161561037457604051630b71744d60e21b815260040160405180910390fd5b61038181600101546108aa565b5061038f81600201546108aa565b5060038101805460ff1916600117905560405182907fc145e7f0ec1043d73724371f30a4fa274dcc63765f9ec78a7bc6025f022d9982905f90a25050565b5f8054600181018255908052600481027f290decd9548b62a8d60345a988386fc84ba6bc95484008f6362f93160ef3e563018061040b84868361110b565b506104155f6108b8565b60018201556104235f6108b8565b60028201556003808201805462ffffff191690555f83815260209190915260409081902080547fffffffffffffffffffffffff000000000000000000000000000000000000000016331790555182907f9c770c289ab5bf7e57cb1d23c8ceae993aea46eb64847072fd3d78ca60d3e432906104a190879087906111c5565b60405180910390a250505050565b5f805482106104d157604051631dc0650160e31b815260040160405180910390fd5b506001919050565b5f5484106104fa57604051631dc0650160e31b815260040160405180910390fd5b5f84815260026020908152604080832033845290915290205460ff161561053457604051637c9a1cf960e01b815260040160405180910390fd5b5f80858154811061054757610547611097565b5f9182526020909120600490910201600381015490915060ff161561057f57604051630b71744d60e21b815260040160405180910390fd5b5f6105bf8585858080601f0160208091040260200160405190810160405280939291908181526020018383808284375f920191909152506108cd92505050565b5f878152600160208181526040808420338086529083528185208690558b855260028352818520818652909252909220805460ff191690911790559091506106089082906108e1565b50610612816108f3565b505f61061d816108b8565b90505f61062a60016108b8565b90505f61063760016108b8565b9050610662856001015461065d61064e87876108fe565b846106585f6108b8565b61092c565b610940565b6001860155600285015461067d9061065d61064e87866108fe565b60028601556001850154610690906108f3565b5061069e85600201546108f3565b5060405133815289907f030b0f8dcd86a031eddb071f91882edeac8173663ba775713b677b42b51be44b9060200160405180910390a2505050505050505050565b5f8054831061070157604051631dc0650160e31b815260040160405180910390fd5b505f91825260036020526040909120546001600160a01b0391821691161490565b5f805481908190841061074857604051631dc0650160e31b815260040160405180910390fd5b5f80858154811061075b5761075b611097565b5f91825260209091206003600490920201015460ff6101008204811697620100008304821697509116945092505050565b5f8054819083106107b057604051631dc0650160e31b815260040160405180910390fd5b5f8084815481106107c3576107c3611097565b905f5260205f2090600402019050806001015481600201549250925050915091565b5f8054831061080757604051631dc0650160e31b815260040160405180910390fd5b505f9182526002602090815260408084206001600160a01b0393909316845291905290205460ff1690565b5f8054821061085457604051631dc0650160e31b815260040160405180910390fd5b5f82815260026020908152604080832033845290915290205460ff1661088d5760405163f8d49bcd60e01b815260040160405180910390fd5b505f90815260016020908152604080832033845290915290205490565b5f6108b48261096e565b5090565b5f6108c78260ff166002610a31565b92915050565b5f6108da83836002610ae6565b9392505050565b5f6108ec8383610c06565b5090919050565b5f6108b48230610c06565b5f826109105761090d5f6108b8565b92505b816109215761091e5f6108b8565b91505b6108da83835f610c5f565b5f610938848484610d5a565b949350505050565b5f826109525761094f5f6108b8565b92505b81610963576109605f6108b8565b91505b6108da83835f610e03565b6040805160018082528183019092527fed8d60e34876f751cc8b014c560745351147d9de11b9347c854e881b128ea600915f91906020808301908036833701905050905082815f815181106109c5576109c5611097565b60209081029190910101528154604051637d6e912360e11b81526001600160a01b039091169063fadd2246906109ff9084906004016111f3565b5f604051808303815f87803b158015610a16575f80fd5b505af1158015610a28573d5f803e3d5ffd5b50505050505050565b7fed8d60e34876f751cc8b014c560745351147d9de11b9347c854e881b128ea60154604051639cd07acb60e01b81525f917fed8d60e34876f751cc8b014c560745351147d9de11b9347c854e881b128ea600916001600160a01b0390911690639cd07acb90610aa69087908790600401611256565b6020604051808303815f875af1158015610ac2573d5f803e3d5ffd5b505050506040513d601f19601f82011682018060405250810190610938919061126a565b7fed8d60e34876f751cc8b014c560745351147d9de11b9347c854e881b128ea6015460405163196d0b9b60e01b81525f917fed8d60e34876f751cc8b014c560745351147d9de11b9347c854e881b128ea600916001600160a01b039091169063196d0b9b90610b5f908890339089908990600401611281565b6020604051808303815f875af1158015610b7b573d5f803e3d5ffd5b505050506040513d601f19601f82011682018060405250810190610b9f919061126a565b8154604051630f8e573b60e21b8152600481018390523360248201529193506001600160a01b031690633e395cec906044015f604051808303815f87803b158015610be8575f80fd5b505af1158015610bfa573d5f803e3d5ffd5b50505050509392505050565b7fed8d60e34876f751cc8b014c560745351147d9de11b9347c854e881b128ea6008054604051635ca4b5b160e11b8152600481018590526001600160a01b0384811660248301529091169063b9496b62906044016109ff565b5f808215610c725750600160f81b610c75565b505f5b7fed8d60e34876f751cc8b014c560745351147d9de11b9347c854e881b128ea6015460405163f77f3f1d60e01b815260048101879052602481018690527fff00000000000000000000000000000000000000000000000000000000000000831660448201527fed8d60e34876f751cc8b014c560745351147d9de11b9347c854e881b128ea600916001600160a01b03169063f77f3f1d906064015b6020604051808303815f875af1158015610d2c573d5f803e3d5ffd5b505050506040513d601f19601f82011682018060405250810190610d50919061126a565b9695505050505050565b5f807fed8d60e34876f751cc8b014c560745351147d9de11b9347c854e881b128ea6006001810154604051637702dcff60e01b81526004810188905260248101879052604481018690529192506001600160a01b031690637702dcff906064016020604051808303815f875af1158015610dd6573d5f803e3d5ffd5b505050506040513d601f19601f82011682018060405250810190610dfa919061126a565b95945050505050565b5f808215610e165750600160f81b610e19565b505f5b7fed8d60e34876f751cc8b014c560745351147d9de11b9347c854e881b128ea6015460405163022f65e760e31b815260048101879052602481018690527fff00000000000000000000000000000000000000000000000000000000000000831660448201527fed8d60e34876f751cc8b014c560745351147d9de11b9347c854e881b128ea600916001600160a01b03169063117b2f3890606401610d10565b5f60208284031215610ec8575f80fd5b5035919050565b5f81518084525f5b81811015610ef357602081850181015186830182015201610ed7565b505f602082860101526020601f19601f83011685010191505092915050565b60c081525f610f2460c0830189610ecf565b6020830197909752506040810194909452911515606084015260ff90811660808401521660a090910152919050565b5f8083601f840112610f63575f80fd5b50813567ffffffffffffffff811115610f7a575f80fd5b602083019150836020828501011115610f91575f80fd5b9250929050565b5f8060208385031215610fa9575f80fd5b823567ffffffffffffffff811115610fbf575f80fd5b610fcb85828601610f53565b90969095509350505050565b5f805f8060608587031215610fea575f80fd5b8435935060208501359250604085013567ffffffffffffffff81111561100e575f80fd5b61101a87828801610f53565b95989497509550505050565b5f8060408385031215611037575f80fd5b8235915060208301356001600160a01b0381168114611054575f80fd5b809150509250929050565b600181811c9082168061107357607f821691505b60208210810361109157634e487b7160e01b5f52602260045260245ffd5b50919050565b634e487b7160e01b5f52603260045260245ffd5b634e487b7160e01b5f52604160045260245ffd5b601f82111561110657805f5260205f20601f840160051c810160208510156110e45750805b601f840160051c820191505b81811015611103575f81556001016110f0565b50505b505050565b67ffffffffffffffff831115611123576111236110ab565b61113783611131835461105f565b836110bf565b5f601f841160018114611168575f85156111515750838201355b5f19600387901b1c1916600186901b178355611103565b5f83815260208120601f198716915b828110156111975786850135825560209485019460019092019101611177565b50868210156111b3575f1960f88860031b161c19848701351681555b505060018560011b0183555050505050565b60208152816020820152818360408301375f818301604090810191909152601f909201601f19160101919050565b602080825282518282018190525f9190848201906040850190845b8181101561122a5783518352928401929184019160010161120e565b50909695505050505050565b6054811061125257634e487b7160e01b5f52602160045260245ffd5b9052565b828152604081016108da6020830184611236565b5f6020828403121561127a575f80fd5b5051919050565b8481526001600160a01b0384166020820152608060408201525f6112a86080830185610ecf565b9050610dfa606083018461123656fea164736f6c6343000818000a",
  "linkReferences": {},
  "deployedLinkReferences": {}
}